{
  "contractName": "ERC20",
  "abi": [
    {
      "anonymous": false,
      "inputs": [
        {
          "indexed": true,
          "internalType": "address",
          "name": "_owner",
          "type": "address"
        },
        {
          "indexed": true,
          "internalType": "address",
          "name": "_spender",
          "type": "address"
        },
        {
          "indexed": false,
          "internalType": "uint256",
          "name": "_value",
          "type": "uint256"
        }
      ],
      "name": "Approval",
      "type": "event"
    },
    {
      "anonymous": false,
      "inputs": [
        {
          "indexed": true,
          "internalType": "address",
          "name": "_from",
          "type": "address"
        },
        {
          "indexed": true,
          "internalType": "address",
          "name": "_to",
          "type": "address"
        },
        {
          "indexed": false,
          "internalType": "uint256",
          "name": "_value",
          "type": "uint256"
        }
      ],
      "name": "Transfer",
      "type": "event"
    },
    {
      "inputs": [
        {
          "internalType": "address",
          "name": "",
          "type": "address"
        }
      ],
      "name": "balanceOf",
      "outputs": [
        {
          "internalType": "uint256",
          "name": "",
          "type": "uint256"
        }
      ],
      "stateMutability": "view",
      "type": "function"
    },
    {
      "inputs": [
        {
          "internalType": "address",
          "name": "",
          "type": "address"
        }
      ],
      "name": "nonces",
      "outputs": [
        {
          "internalType": "uint256",
          "name": "",
          "type": "uint256"
        }
      ],
      "stateMutability": "view",
      "type": "function"
    },
    {
      "inputs": [],
      "name": "totalSupply",
      "outputs": [
        {
          "internalType": "uint256",
          "name": "",
          "type": "uint256"
        }
      ],
      "stateMutability": "view",
      "type": "function"
    },
    {
      "inputs": [
        {
          "internalType": "address",
          "name": "to",
          "type": "address"
        },
        {
          "internalType": "uint256",
          "name": "amount",
          "type": "uint256"
        }
      ],
      "name": "transfer",
      "outputs": [
        {
          "internalType": "bool",
          "name": "success",
          "type": "bool"
        }
      ],
      "stateMutability": "nonpayable",
      "type": "function"
    },
    {
      "inputs": [
        {
          "internalType": "address",
          "name": "from",
          "type": "address"
        },
        {
          "internalType": "address",
          "name": "to",
          "type": "address"
        },
        {
          "internalType": "uint256",
          "name": "amount",
          "type": "uint256"
        }
      ],
      "name": "transferFrom",
      "outputs": [
        {
          "internalType": "bool",
          "name": "success",
          "type": "bool"
        }
      ],
      "stateMutability": "nonpayable",
      "type": "function"
    },
    {
      "inputs": [
        {
          "internalType": "address",
          "name": "spender",
          "type": "address"
        },
        {
          "internalType": "uint256",
          "name": "amount",
          "type": "uint256"
        }
      ],
      "name": "approve",
      "outputs": [
        {
          "internalType": "bool",
          "name": "success",
          "type": "bool"
        }
      ],
      "stateMutability": "nonpayable",
      "type": "function"
    },
    {
      "inputs": [],
      "name": "DOMAIN_SEPARATOR",
      "outputs": [
        {
          "internalType": "bytes32",
          "name": "",
          "type": "bytes32"
        }
      ],
      "stateMutability": "view",
      "type": "function"
    },
    {
      "inputs": [
        {
          "internalType": "address",
          "name": "owner_",
          "type": "address"
        },
        {
          "internalType": "address",
          "name": "spender",
          "type": "address"
        },
        {
          "internalType": "uint256",
          "name": "value",
          "type": "uint256"
        },
        {
          "internalType": "uint256",
          "name": "deadline",
          "type": "uint256"
        },
        {
          "internalType": "uint8",
          "name": "v",
          "type": "uint8"
        },
        {
          "internalType": "bytes32",
          "name": "r",
          "type": "bytes32"
        },
        {
          "internalType": "bytes32",
          "name": "s",
          "type": "bytes32"
        }
      ],
      "name": "permit",
      "outputs": [],
      "stateMutability": "nonpayable",
      "type": "function"
    }
  ],
  "bytecode": "0x608060405234801561001057600080fd5b50610722806100206000396000f3fe608060405234801561001057600080fd5b50600436106100885760003560e01c806370a082311161005b57806370a08231146101255780637ecebe001461014b578063a9059cbb14610171578063d505accf1461019d57610088565b8063095ea7b31461008d57806318160ddd146100cd57806323b872dd146100e75780633644e5151461011d575b600080fd5b6100b9600480360360408110156100a357600080fd5b506001600160a01b0381351690602001356101f0565b604080519115158252519081900360200190f35b6100d5610257565b60408051918252519081900360200190f35b6100b9600480360360608110156100fd57600080fd5b506001600160a01b0381358116916020810135909116906040013561025d565b6100d561036f565b6100d56004803603602081101561013b57600080fd5b50356001600160a01b03166103c6565b6100d56004803603602081101561016157600080fd5b50356001600160a01b03166103d8565b6100b96004803603604081101561018757600080fd5b506001600160a01b0381351690602001356103ea565b6101ee600480360360e08110156101b357600080fd5b506001600160a01b03813581169160208101359091169060408101359060608101359060ff6080820135169060a08101359060c001356104a8565b005b3360008181526002602090815260408083206001600160a01b038716808552908352818420869055815186815291519394909390927f8c5be1e5ebec7d5bd14f71427d1e84f3dd0314c0f7b2291e5b200ac8c7c3b925928290030190a35060015b92915050565b60005481565b6001600160a01b03831660009081526001602052604081205482118015906102a857506001600160a01b03841660009081526002602090815260408083203384529091529020548211155b80156102b45750600082115b80156102d957506001600160a01b038316600090815260016020526040902054828101115b15610364576001600160a01b0380851660008181526001602081815260408084208054899003905560028252808420338552825280842080548990039055948816808452918152918490208054870190558351868152935190937fddf252ad1be2c89b69c2b068fc378daa952ba7f163c4a11628f55a4df523b3ef92908290030190a3506001610368565b5060005b9392505050565b604080517f47e79534a245952e8b16893a336b85a3d9ea9fa8c573f3d803afb92a79469218602080830191909152468284015230606080840191909152835180840390910181526080909201909252805191012090565b60016020526000908152604090205481565b60036020526000908152604090205481565b3360009081526001602052604081205482118015906104095750600082115b801561042e57506001600160a01b038316600090815260016020526040902054828101115b156104a057336000818152600160209081526040808320805487900390556001600160a01b03871680845292819020805487019055805186815290519293927fddf252ad1be2c89b69c2b068fc378daa952ba7f163c4a11628f55a4df523b3ef929181900390910190a3506001610251565b506000610251565b8342106104ed576040805162461bcd60e51b815260206004820152600e60248201526d115490cc8c0e88115e1c1a5c995960921b604482015290519081900360640190fd5b60006104f761036f565b6001600160a01b03808a1660008181526003602090815260408083208054600180820190925582517f6e71edae12b1b97f4d1f60370fef10105fa2faae0126114a169c64845d6126c98186015280840196909652958e166060860152608085018d905260a085019590955260c08085018c90528151808603909101815260e08501825280519083012061190160f01b6101008601526101028501969096526101228085019690965280518085039096018652610142840180825286519683019690962095839052610162840180825286905260ff8a166101828501526101a284018990526101c284018890525194955090936101e280840193601f198301929081900390910190855afa158015610612573d6000803e3d6000fd5b505050602060405103519050886001600160a01b0316816001600160a01b031614610684576040805162461bcd60e51b815260206004820152601860248201527f45524332303a20496e76616c6964205369676e61747572650000000000000000604482015290519081900360640190fd5b6001600160a01b03808a166000818152600260209081526040808320948d16808452948252918290208b905581518b815291517f8c5be1e5ebec7d5bd14f71427d1e84f3dd0314c0f7b2291e5b200ac8c7c3b9259281900390910190a350505050505050505056fea26469706673582212201b99a20de1172f535727d40ef8cd23a55b8591acb45a1a8dedb8d2e3fdbd5cb264736f6c634300060c0033",
  "immutableReferences": {},
  "source": "// SPDX-License-Identifier: MIT\r\n// solium-disable security/no-inline-assembly\r\n// solium-disable security/no-block-members\r\n\r\npragma solidity 0.6.12;\r\n\r\n// Data part taken out for building of contracts that receive delegate calls\r\ncontract ERC20Data {\r\n    uint256 public totalSupply;\r\n    mapping(address => uint256) public balanceOf;\r\n    mapping(address => mapping (address => uint256)) allowance;\r\n    mapping(address => uint256) public nonces;\r\n}\r\n\r\ncontract ERC20 is ERC20Data {\r\n    event Transfer(address indexed _from, address indexed _to, uint256 _value);\r\n    event Approval(address indexed _owner, address indexed _spender, uint256 _value);\r\n\r\n    function transfer(address to, uint256 amount) public returns (bool success) {\r\n        if (balanceOf[msg.sender] >= amount && amount > 0 && balanceOf[to] + amount > balanceOf[to]) {\r\n            balanceOf[msg.sender] -= amount;\r\n            balanceOf[to] += amount;\r\n            emit Transfer(msg.sender, to, amount);\r\n            return true;\r\n        } else {\r\n            return false;\r\n        }\r\n    }\r\n\r\n    function transferFrom(address from, address to, uint256 amount) public returns (bool success) {\r\n        if (balanceOf[from] >= amount && allowance[from][msg.sender] >= amount && amount > 0 && balanceOf[to] + amount > balanceOf[to]) {\r\n            balanceOf[from] -= amount;\r\n            allowance[from][msg.sender] -= amount;\r\n            balanceOf[to] += amount;\r\n            emit Transfer(from, to, amount);\r\n            return true;\r\n        } else {\r\n            return false;\r\n        }\r\n    }\r\n\r\n    function approve(address spender, uint256 amount) public returns (bool success) {\r\n        allowance[msg.sender][spender] = amount;\r\n        emit Approval(msg.sender, spender, amount);\r\n        return true;\r\n    }\r\n\r\n    function DOMAIN_SEPARATOR() public view returns (bytes32){\r\n      uint256 chainId;\r\n      assembly {chainId := chainid()}\r\n      return keccak256(abi.encode(keccak256(\"EIP712Domain(uint256 chainId,address verifyingContract)\"), chainId, address(this)));\r\n    }\r\n\r\n    function permit(address owner_, address spender, uint256 value, uint256 deadline, uint8 v, bytes32 r, bytes32 s) external {\r\n        require(block.timestamp < deadline, 'ERC20: Expired');\r\n        bytes32 digest = keccak256(abi.encodePacked(\r\n            '\\x19\\x01', DOMAIN_SEPARATOR(),\r\n            keccak256(abi.encode(0x6e71edae12b1b97f4d1f60370fef10105fa2faae0126114a169c64845d6126c9, owner_, spender, value, nonces[owner_]++, deadline))\r\n        ));\r\n        address recoveredAddress = ecrecover(digest, v, r, s);\r\n        require(recoveredAddress == owner_, 'ERC20: Invalid Signature');\r\n        allowance[owner_][spender] = value;\r\n        emit Approval(owner_, spender, value);\r\n    }\r\n}\r\n",
  "sourcePath": "/root/bentobox/contracts/ERC20.sol",
  "compiler": {
    "name": "solc",
    "version": "0.6.12+commit.27d51765.Emscripten.clang"
  },
  "schemaVersion": "3.3.2",
  "updatedAt": "2020-11-30T16:49:22.431Z",
  "devdoc": {
    "kind": "dev",
    "methods": {},
    "version": 1
  },
  "userdoc": {
    "kind": "user",
    "methods": {},
    "version": 1
  }
}